:020000040800F2
:10000000B04700209D01000805480008CB350008D6
:100010000148000879190008B94C000800000000E8
:1000200000000000000000000000000005010008C2
:10003000B91900080000000049010008E94900085A
:10004000B7010008B7010008B7010008B7010008B0
:10005000B7010008B7010008B7010008B7010008A0
:10006000B7010008B7010008B7010008B701000890
:10007000B7010008B7010008B7010008B701000880
:10008000B7010008B7010008B7010008B701000870
:10009000B7010008B7010008B7010008B701000860
:1000A000B7010008B7010008B7010008B701000850
:1000B000B7010008B7010008B7010008B701000840
:1000C000B7010008B7010008B7010008B701000830
:1000D000B7010008B7010008B7010008B701000820
:1000E000B7010008B7010008B7010008DFF810D019
:1000F00000F020FE00480047B9650008AFF300801B
:10010000B0470020224B19680868B0E8F00F80F370
:100110000988BFF36F8F4FF0000080F311884EF015
:100120000D0E70470000000006480068006880F36C
:10013000088862B661B6BFF34F8FBFF36F8F00DFE1
:1001400000BF00BF08ED00E0EFF30980BFF36F8F41
:100150000F4B1A6820E9F00F106008B54FF0BF0090
:1001600080F31188BFF34F8FBFF36F8F08F040F912
:100170004FF0000080F31188BDE808401968086856
:10018000B0E8F00F80F30988BFF36F8F704700BFAE
:100190002C000020EFF305807047000006488047E0
:1001A00006480047FEE7FEE7FEE7FEE7FEE7FEE75C
:1001B000FEE7FEE7FEE7FEE7634A0008ED00000801
:1001C000202A04DB203A21FA02F00021704721FAAC
:1001D00002F3D040C2F12002914008431946704713
:1001E000A0F14101192900D82030704740EA0103ED
:1001F0009B0703D009E008C9121F08C0042AFAD2DD
:1002000003E011F8013B00F8013B521EF9D27047A0
:10021000D2B201E000F8012B491EFBD27047002248
:10022000F6E710B513460A4604461946FFF7F0FFF5
:10023000204610BD421C10F8011B0029FBD1801A7A
:10024000704710B5002200E0521C835C8C5CA34216
:1002500001D1002BF8D1D8B2E1B2401A10BD03464B
:1002600011F8012B00F8012B002AF9D1184670472C
:1002700030B505460020034600E05B1C934205D2E2
:10028000EC5CC85C201A01D1002CF6D130BD0022F4
:10029000CBB20178994200D10246401C0029F8D126
:1002A000104670470FB400B58DB010A909900B909F
:1002B00000914FF0FF300A9000200C900548069006
:1002C000054807906A4609A80F9900F0ABFB0DB0EE
:1002D0005DF814FB410A00085F0A00082DE9FF4F92
:1002E000087883B09946FF2805D0491C2D2804D0F2
:1002F0000024002008E000200BE00124F9E700EBD7
:10030000800003EB4000491C0B78FF2BF7D104B1B0
:10031000404200230293147819461D462D2C01D02B
:100320002B2C04D1521C2D2C13D000240294AA464D
:100330001478FF2C0FD00A25A3FB057801FB05815B
:100340004FF0000C03FB0C11521CE3194AEB0101A6
:10035000EEE70124EAE7814453EA010002D019F5EF
:10036000C87F06DA03980021C0E9001107B0BDE894
:10037000F08F0025AE4E2F46DFF8B882184600F009
:1003800099FCCDE90001B9F1000002DAC9F10004DD
:1003900000E004460023A74A1AEB030B42EB045A81
:1003A00012E0E00707D02A4633463846414600F0BF
:1003B000ECF9074688462A4633461046194600F0AF
:1003C000E4F905460E466410002CEAD1DDE900018F
:1003D000B9F1000F5A46534606DA00F0FCFB3A46E4
:1003E000434600F0F8FB05E000F0CFF93A464346FB
:1003F00000F0CBF9029A0AB181F00041039AC2E9F8
:100400000001B3E72DE9FF4F1F468DB0D7E9014644
:100410004FF0FF382E2045464FF000090B90B96988
:100420006D1C0E988847396A824688470028F6D1A5
:10043000BAF1FF3F0AD024F4D064002E11DDBAF1E6
:100440002B0F08D0BAF12D0F0BD102E0404611B0AE
:100450008DE744F48064B9696D1C0E988847824624
:10046000761E6946600501D52D2000E02B208DF811
:10047000000001F1010B0DF1200809E0B9696D1CC4
:100480000E98884782460F9844F40074761E0560E3
:10049000002E02DDBAF1300FF0D00B998A453ED123
:1004A00044F0800406E00F99681CA9F1010944F4A6
:1004B00000740860B9696D1C761E0E9888478246E4
:1004C0003028F0D02BE00B998A4505D1200603D4C3
:1004D00044F08004761E18E0504604F055FE08B340
:1004E0000DF11301761E44F400748B4508D2AAF175
:1004F00030000BF8010B200607D5A9F1010003E03D
:10050000200602D409F101008146A00502D50F9909
:10051000681C0860B9696D1C0E9888478246002ED9
:10052000D1DC53E0002E51DDBAF1650F02D0BAF1F3
:10053000450F4BD1A00549D5B9696D1C24F4407411
:10054000761E0E9888478246002E0CDD2B2804D09C
:10055000BAF12D0F07D144F48074B9696D1C0E985F
:1005600088478246761EE00501D52D2100E02B212B
:1005700008F8011BCDF82C8021E00DF12901761E31
:1005800044F4007488450CD2AAF1300010F0FF004A
:1005900088F8000002D10B99884509D908F10108B3
:1005A00006E0E00501D5244801E042F20F708146E3
:1005B000B9696D1C0E98884782460F980560002E19
:1005C00004DD504604F0E0FD0028D6D1F9690E980C
:1005D0008847FF208BF8000088F800000020069074
:1005E00007904B466A4608A906A8FFF777FEA005C4
:1005F00002D46FF001002AE714F0240F0AD0E007BC
:1006000014D1DDE906123868031D3B600068C0E9BB
:1006100000120BE0DDE9060100F070FB0146E00787
:1006200004D13868021D3A600068016028460EE770
:10063000000014400000F03FF1D8FFFF2DE9FE4F0D
:10064000804681EA0300C00F0C46009021F0004173
:1006500023F00045B8EB0200A94105D240462146EF
:1006600090461C460B46024623F00040104347D0FC
:10067000270DC7F30A00C3F30A510290401A0190F4
:1006800040286BDAC3F3130040F4801B00989246B5
:1006900020B10023D2EB030A63EB0B0B0198594600
:1006A000C0F14002504600F096F906460D4650460D
:1006B0005946019A00F09EF910EB080061410024B0
:1006C00087EA115284EAE7731A4340D0009A62B372
:1006D000019A012A4FEA075215DC001B61EB020167
:1006E0004FF0004202EA0752CDE90042001C41F5FA
:1006F000801132462B4600F020FA03B0BDE8F08F9F
:1007000040462146F9E7001B61EB0201001C41F560
:10071000801300185B412018A2F5001747EB030176
:1007200040EAD570B6196D4111E06D084FEA360602
:1007300045EAC0754FEA0752001B61EB0201001C3D
:1007400041F5801149084FEA300000195141324605
:100750002B4603B0BDE8F04F00F0E0B9009801224D
:1007600040000023D0EB020263EBE07300982146C7
:100770004FEAE074B8EB000061EB0401E9E783F0B5
:1007800000435BE781F0004158E72DE9FE4F81EA25
:10079000030404F0004421F0004100944FF0000BEA
:1007A00023F0004350EA01045ED052EA03045BD018
:1007B000C3F30A54C1F30A552C44A4F2F334019450
:1007C000A0FB0254C1F3130141F48011C3F31303DE
:1007D00043F4801301FB024400FB034E840A970A92
:1007E00044EA815447EA8357A4FB076802958D0ABF
:1007F00005FB07854FEA932C04FB0C542705029D4B
:100800004FEA065847EA1637B5EB08056EEB070CBA
:10081000870E920E47EA811742EA8312A7FB020174
:10082000B6EB0B0164EB00042B0D43EA0C335E18AE
:1008300044EB1C50DA465146E7FB0201C5F31304B2
:100840004FEA0B3343EA14534FEA0432019C43EA64
:100850000603A4F10C040294009CCDE900B400F05E
:100860006CF903B0BDE8F08F00200146F9E70EB542
:10087000C10F80EAE0700844CA07002140F2334308
:100880008DE80E000A460B4600F057F903B000BD94
:100890000EB540F2334102910021CDE900110A4624
:1008A0000B4600F04AF903B000BD70B5C1F30A521F
:1008B00001F000450024C1F3130140F2FF3341F47D
:1008C00080119A4201DA002070BD40F233439A420F
:1008D000A2F2334203DC5242FFF772FC00E0904088
:1008E0002C43F1D0404270BD30B5041E71F10004BC
:1008F00004DB4FF00044404264EB0101141E73F12D
:10090000000405DB1C464FF00043524263EB040336
:100910008B4208BF824230BD30B5041E71F1000425
:1009200004DB4FF00044404264EB0101141E73F1FC
:10093000000405DB1C464FF00043524263EB040306
:10094000994208BF904230BD30B50B4601460020A9
:100950002022012409E021FA02F59D4205D303FA81
:1009600002F5491B04FA02F52844151EA2F1010202
:10097000F1DC30BD2DE9F05F0546002092469B4634
:1009800088460646814640241BE0284641464746A5
:100990002246FFF715FC53465A46C01A914110D320
:1009A00011461846224600F016F82D1A67EB01088A
:1009B0004F4622460120002100F00DF817EB0009F8
:1009C0004E41201EA4F10104DFDC484631462A4690
:1009D0004346BDE8F09F202A04DB203A00FA02F1EA
:1009E000002070479140C2F1200320FA03F319431D
:1009F00090407047202A06DBCB17203A41FA02F0DC
:100A000043EAE07306E041FA02F3D040C2F120026B
:100A100091400843194670470268114413780160F9
:100A200018467047D16004495161044911620021A0
:100A30001161114600F096B9190A0008590D000815
:100A4000426842B1016811F8013B23B1521EC0E96E
:100A50000012184670470121C160881E7047426825
:100A60005AB1C368016843B983688B4205D0491EF7
:100A7000521CC0E90012002070474FF0FF30704751
:100A80000FB4002300B589B00CA900910B996FF049
:100A90000042CB601E4B06931E4B07930423CDE907
:100AA00001321D4A089202466B460020FFF7AAFC5D
:100AB00009B05DF814FB70B586B006464FF0FF3004
:100AC0000091CDE90101002015460C460490324604
:100AD000694604A8FFF7D4FF02460498211825B1FF
:100AE00008B1084600E020462860049800280DD090
:100AF000002A02DD0098884208D0081B0094CDE946
:100B000001043246694604A8FFF7BAFF06B070BD7B
:100B1000410A00085F0A0008590D000810B5141EAC
:100B200073F1000408DA401C41F1000192185B41A6
:100B30001A4301D120F0010010BD2DE9F04D92467D
:100B40009B4611B1B1FA81F202E0B0FA80F2203294
:100B50009046FFF740FF04460F4640EA0A0041EA8C
:100B60000B0153465A46084313D0114653EA01007D
:100B700019D0C8F140025046FFF722FB05460E4649
:100B8000504659464246FFF726FF084305D001204C
:100B900004E020463946BDE8F08D0020054346EAD2
:100BA000E0762C4337430A986305E40AA0EB08007B
:100BB0000022FD0A44EA47540A3002D500200146CB
:100BC000E9E7010510196941DDE9084500196941A6
:100BD000BDE8F04DA2E72DE9F04D81EA030404F0F1
:100BE000004B21F0004514464FF0000A23F000416D
:100BF00050EA050220D054EA01021DD0C5F30A577D
:100C00000246C5F31303C1F31300C1F30A5640F4BF
:100C1000801543F48013A7EB0608101BD64608F294
:100C2000FD3873EB050002D308F1010801E09218CA
:100C30005B41B8F1000F03DA00200146BDE8F08DFA
:100C400000204FF48011064684460EE0171B73EB1C
:100C5000050705D3121B63EB050306434CEA010CA1
:100C600049084FEA300092185B4150EA0107EDD184
:100C700052EA030012D082EA040083EA0501084325
:100C800005D0101BAB4106D20122002306E0002252
:100C90004FF0004302E06FF0010253101AEB060020
:100CA0004CEB085110EB0A0041EB0B01BDE8F04D95
:100CB000FFF734BF0EB540F2334202920022CDE975
:100CC00000221346FFF739FF03B000BDC1F30A52FB
:100CD000C1F3130140F2FF3341F480119A4202DA6A
:100CE00000200146704740F233439A42A2F2334259
:100CF00002DC5242FFF764BAFFF76DBE01F0004319
:100D000030B421F0004150EA010206D00A0DA2F5EC
:100D10006072C1F31301002A02DC30BC002070476E
:100D2000440F44EAC104C100E01830BC00EBC250DB
:100D300000F0B0B9064C074D06E0E06840F0010352
:100D400094E8070098471034AC42F6D3FFF7D2F985
:100D5000E08B0008008C0008C0B24FF4F05100F0A6
:100D6000D1B900002DE9F34F8BB04FF0000801F12D
:100D70000C000C464FF0010B46460DF1080A01909D
:100D80006269012101989047051E2DD0252D2CD098
:100D9000216A8847C0B16269012101989047216AA0
:100DA00088470028F7D1411E62690198904700E00A
:100DB000761CA1690B988847216A88470028F7D1DB
:100DC000E1690B988847DBE7A1690B9888470746DC
:100DD000A84201D1761CD3E7E1690B9888477F1CB4
:100DE00002D1B8F1000F6FD047E1002762693D469C
:100DF0003946019890472A2804D162690121019857
:100E000090470125DFF88892626901210198904797
:100E1000A0F130010A290AD24F45E5DC07EB870132
:100E200000EB4107303FDFD445F01005ECE7E90661
:100E300001D46FF000476C280AD04C2814D06828E1
:100E400015D06A280DD074281CD07A281AD01DE03D
:100E500062690121019890476C2802D045F0040591
:100E600014E045F002050DE045F020050AE0626956
:100E7000012101989047682802D045F0080505E057
:100E800045F400656269012101989047C4E9015762
:100E900065283DD019DC58287AD00CDC452837D09D
:100EA00004DC252826D0412831D131E046282FD036
:100EB00047282CD12CE05B2877D0612828D06328E4
:100EC0007CD0642823D15AE0D1E06F2848D008DCD8
:100ED00066281DD067281BD0692821D06E2816D11E
:100EE00027E0702845D0732868D0752847D0782827
:100EF0000DD14DE0A1690B988847054625283FF4A0
:100F000069AFE1690B9888476D1C3FF46AAFB4E0A4
:100F100023466A466FF001000B99FFF773FA9FE0D2
:100F200045F040006060A80723464FF0000236D429
:100F30003EE0E8077FF447AF2068011D21600068AC
:100F4000290501D506701BE7290701D5068017E79B
:100F5000A90703D5F117C0E9006111E706600FE7A3
:100F600045F040006060A80723464FF0080216D401
:100F70001EE040F60E0125EA0100606016E045F033
:100F800040006060A80723464FF00A0207D40FE034
:100F900045F040006060A80708D5234610226FF096
:100FA00001000B99AFF300805AE007E023461022BE
:100FB0006FF001000B99AFF3008051E04FF0000992
:100FC0004F464B46632802D05B2807D041E020798A
:100FD000C00601D40120A06001273AE06269012126
:100FE000019890475E2805D14FF001096269494692
:100FF00001989047216939B900210A46534643F8C0
:101000002120491C0829FADBB0B3216969B9C1174D
:1010100000EBD16253110AEB830122F01F02821A06
:1010200001200B68904003430B6062690121019825
:1010300090475D28E8D1B9F1000F09D00020514652
:1010400051F82020D24341F82020401C0828F7DB2B
:1010500002AB224600976FF001000B99AFF30080BE
:1010600000280CDA401C08D1BBF1000F05D04FF06E
:10107000FF300DB0BDE8F08FFFE74046F9E7E90724
:1010800001D108F1010806444FF0000B78E600009A
:10109000CCCCCC0C0029A8BF7047401C490008BF2D
:1010A00020F00100704710B4B0FA80FC00FA0CF098
:1010B00050EA010404BF10BC704749B1CCF12004D0
:1010C00021FA04F411FA0CF118BF0121214308435D
:1010D000A3EB0C01CB1D4FEA00614FEA102042BF89
:1010E000002010BC704700EBC35010440029A4BF7F
:1010F00010BC7047401C490008BF20F0010010BC24
:10110000704700007F2801D9002208E0064A02EB60
:101110005002C007127800D1120902F00F0201201C
:101120009040084070470000A08B000870B58C18F4
:1011300010F8015B15F0070301D110F8013B2A11EB
:1011400006D110F8012B03E010F8016B01F8016BD8
:101150005B1EF9D12B0705D40023521E0DD401F8D4
:10116000013BFAE710F8013BCB1A921C03E013F89D
:10117000015B01F8015B521EF9D5A142D8D30020D2
:1011800070BD000086B0642007F070F85C2160A09C
:10119000FFF77DF828B15C215DA0FFF778F8401CCF
:1011A00000E05BA005462F21FFF771F888B15C21B4
:1011B00057A0FFF76CF828B15C2155A0FFF767F83E
:1011C000401C00E052A005462F21FFF760F8401CAC
:1011D0000BE05C214EA0FFF75AF828B15C214CA02F
:1011E000FFF755F8401C00E049A004469422214630
:1011F0004DA003F061FE0020049005900390029042
:1012000084E002AA03A904A800F0F0FB9DF80C00FA
:1012100000287BDD5C213EA0FFF739F828B15C2176
:101220003BA0FFF734F8401C00E039A005462F2111
:10123000FFF72DF888B15C2135A0FFF728F828B119
:101240005C2133A0FFF723F8401C00E030A00546E6
:101250002F21FFF71CF8401C0BE05C212CA0FFF7AE
:1012600016F828B15C212AA0FFF711F8401C00E015
:1012700027A0044604A800909DF80C30A122214626
:1012800032A003F019FE04F009FC8146BDF8080005
:10129000FFF7FEFA06460022344BFFF776FA0446C3
:1012A00022460B4632A1484604F08EFB9DF8110001
:1012B00008B930A000E032A0024633A1484604F04D
:1012C000A1FB9DF813109DF8122041EA0220FFF7C0
:1012D000CEFA06460022254BFFF757FA044622466F
:1012E0000B462AA1484604F06FFB484604F0CCFCAC
:1012F00080464046FEF79EFF84B22246414625A026
:1013000002F076FA484604F0EFFB00BF79E70000F0
:101310002E2E5C4170705C5461736B5C4170705F29
:101320005461736B2E6300005B253230733A256481
:101330005D202063616EBDD3CADCC8CECEF1BFAAEA
:10134000CABCD6B4D0D02E2E2E0D0A005B2532306A
:10135000733A25645D2020CAD5B5BDB5E7BBFACA8E
:10136000FDBEDD3A252E2A730D0A00000000F03F75
:10137000696400006261636B776172640000000061
:10138000666F72776172640064697200737065657C
:1013900064000000726573706F6E7365000000007A
:1013A00008B55C2120A0FEF772FF28B15C211EA0C9
:1013B000FEF76DFF401C00E01BA005462F21FEF745
:1013C00066FF88B15C2118A0FEF761FF28B15C219F
:1013D00015A0FEF75CFF401C00E013A005462F217E
:1013E000FEF755FF401C0BE05C210FA0FEF74FFFFE
:1013F00028B15C210CA0FEF74AFF401C00E00AA0C7
:101400000446852221460EA003F056FD07F00AFA95
:10141000009007E002F0DEF900BF6421684607F0A3
:10142000B7F900BFF6E700002E2E5C4170705C54E7
:1014300061736B5C4170705F5461736B2E6300006D
:101440005B253230733A25645D20204D515454D0D1
:10145000C4CCF8C8CECEF1BFAACABCD6B4D0D00D89
:101460000A0000002DE9FC5F81468A465C21A1A0AC
:10147000FEF70DFF28B15C219EA0FEF708FF401C7F
:1014800000E09CA083462F21FEF701FF88B15C217C
:1014900098A0FEF7FCFE28B15C2196A0FEF7F7FEAF
:1014A000401C00E093A083462F21FEF7F0FE401C75
:1014B0000BE05C218FA0FEF7EAFE28B15C218DA035
:1014C000FEF7E5FE401C00E08AA0534633220146A9
:1014D000CDE900908DA003F0EFFC5146484604F0A2
:1014E0005FFB8046B8F1000F39D15C2181A0FEF787
:1014F000CEFE28B15C217FA0FEF7C9FE401C00E0B3
:101500007CA083462F21FEF7C2FE88B15C2179A022
:10151000FEF7BDFE28B15C2176A0FEF7B8FE401CA8
:1015200000E074A083462F21FEF7B1FE401C0BE0C3
:101530005C2170A0FEF7ABFE28B15C216DA0FEF728
:10154000A6FE401C00E06BA03B220146019076A065
:1015500003F0B2FC404604F0C7FABDE8FC9F79A155
:10156000404604F0F1FA044677A1404604F0ECFA54
:10157000064678A1404604F0E7FA054678A14046C1
:1015800004F0E2FA07461CB116B10DB1002F38D1B4
:101590005C2158A0FEF77BFE28B15C2155A0FEF728
:1015A00076FE401C00E053A083462F21FEF76FFE1D
:1015B00088B15C214FA0FEF76AFE28B15C214DA0E6
:1015C000FEF765FE401C00E04AA083462F21FEF78F
:1015D0005EFE401C0BE05C2146A0FEF758FE28B1E1
:1015E0005C2144A0FEF753FE401C00E041A04822CD
:1015F000014601905DA003F05FFC404604F074FAE0
:10160000ABE7204604F0A9FA60B1384604F0A5FA29
:1016100040B1304604F0ACFA20B1284604F09DFAFF
:10162000002838D15C2133A0FEF731FE28B15C21BF
:1016300030A0FEF72CFE401C00E02EA083462F2198
:10164000FEF725FE88B15C212AA0FEF720FE28B116
:101650005C2128A0FEF71BFE401C00E025A083466D
:101660002F21FEF714FE401C0BE05C2121A0FEF7A9
:101670000EFE28B15C211FA0FEF709FE401C00E011
:101680001CA050220146019040A003F015FC4046EA
:1016900004F02AFA61E745A13069FEF7D2FD18BBD4
:1016A00000200090019001208DF80000387D8DF819
:1016B0000100A88A000A8DF80200287D8DF8030039
:1016C000A18A88B20822694600F0AEF94FF47A7018
:1016D00000F04CFD02208DF80000A18A88B208229B
:1016E000694600F0A1F900BF404604F0FDF900BFD3
:1016F00033E700002E2E5C4170705C5461736B5CAC
:101700004170705F5461736B2E6300005B25323053
:10171000733A25645D2020BDD3CAD5CAFDBEDD3A2B
:1017200020252E2A730D0A005B253230733A25647A
:101730005D20206A736F6EBDE2CEF6B3F6B4ED2E77
:101740002E0D0A0069640000636F6E6E6563745449
:1017500079706500746172676574537065656400C3
:101760006D6F746F72537461747573005B253230E2
:10177000733A25645D2020C8B1C9D9B1D8D0EBD265
:10178000AAB5C4B2CECAFD2E2E0D0A005B2532309A
:10179000733A25645D2020CAFDBEDDC0E0D0CDB324
:1017A000F6B4ED2E2E2E0D0A0000000063616E00CF
:1017B0001CB50020092103464FF48072CDE90010CA
:1017C00003A1054806F0B0FF06F0D4FD1CBD0000E3
:1017D0007374617274000000DD1700087CB5064662
:1017E0005C2145A0FEF753FD28B15C2142A0FEF725
:1017F0004EFD401C00E040A005462F21FEF747FDAE
:1018000088B15C213CA0FEF742FD28B15C213AA0E2
:10181000FEF73DFD401C00E037A005462F21FEF7F6
:1018200036FD401C0BE05C2133A0FEF730FD28B1F3
:101830005C2131A0FEF72BFD401C00E02EA00446E9
:101840007022214632A003F037FB5C212AA0FEF76C
:101850001EFD28B15C2128A0FEF719FD401C00E008
:1018600025A005462F21FEF712FD88B15C2122A09C
:10187000FEF70DFD28B15C211FA0FEF708FD401CFE
:1018800000E01DA005462F21FEF701FD401C0BE0E6
:101890005C2119A0FEF7FBFC28B15C2116A0FEF725
:1018A000F6FC401C00E014A004467122214621A051
:1018B00003F002FB274801F095FF01F089FE00F0DC
:1018C0007DF82548072100234FF48072CDE90010F0
:1018D00022A1254806F028FF2448072100234FF4C1
:1018E0008072CDE9001022A1224806F01DFF0020E1
:1018F00006F0D6FC7CBD00002E2E5C4170705C545E
:1019000061736B5C4170705F5461736B2E63000098
:101910005B253230733A25645D2020C6F4B6AFC82B
:10192000CECEF1BFAACABCB5F7B6C82E2E2E0D0A70
:10193000000000005B253230733A25645D20204DA5
:10194000515454BFAACABCB3F5CABCBBAF2E2E2E8D
:101950002E0D0A0065140008240000206B656570D8
:10196000616C697665000000A11300082800002062
:1019700063616E008511000800BFFEE72DE9F041AC
:1019800004460D46164643F23907207800233A46AE
:10199000012106F049FA2168884202D00020BDE802
:1019A000F08120783246294604F044FA012801D01B
:1019B0000020F4E70120F2E77047000000B58BB08B
:1019C00000200690059001900290039004900790EB
:1019D00001200890099001A9034800F01BF9024872
:1019E00000F094FB0BB000BD5801002070B5064616
:1019F0000C46154600210A4800F091F960B13346C3
:101A0000084A0021064800F09EF90648007C207034
:101A100004480088288002E000202070288070BDE3
:101A20005801002094390020F8B504460D461646AA
:101A300000BF0A4800F051FA0028FAD008480460B4
:101A400000200749C86088600846066100200090B1
:101A50006B462A46014800F038F8F8BD58010020CE
:101A60007C39002008B5002000904FF4FA63012271
:101A70006946034801F0ECF99DF8000008BD00003C
:101A80008001002010B500224FF48071014800F061
:101A900011FD10BD0008014010B5012211020248DD
:101AA00000F008FD10BD00000008014001B54FF432
:101AB000FA6301226946024801F08BFA08BD000072
:101AC0008001002072B600BFFEE7F0B504460D4667
:101AD0001E4694F8207020688368A86800B900E06A
:101AE00000BF012F01D0022F7DD103F0806030B9FB
:101AF00003F0006018B903F0805000287ED0C3F3D3
:101B00000161012088403060A86860B9B5F800C064
:101B1000E86840EA4C5C206800F5C07000EB0110FA
:101B2000C0F800C00FE0D5E901C040EACC00D5F80C
:101B30000CC040EA0C00D4F800C00CF5C07C0CEBE3
:101B4000011CCCF80000D5F810C0206800F5C0706A
:101B500000EB0110C0F804C0287D01280ED12068D8
:101B600000F5C07000EB0110406840F4807C2068F4
:101B700000F5C07000EB0110C0F804C0D079000679
:101B800092F806C040EA0C4092F805C040EA0C20EA
:101B900092F804C040EA0C00D4F800C00CF5C07CF8
:101BA0000CEB011CCCF80C00D078000692F802C0B7
:101BB00040EA0C4092F801C040EA0C2092F800C0C4
:101BC00040EA0C00D4F800C00CF5C07C0CEB011C02
:101BD000CCF80800206800F5C07000EB0110006828
:101BE00040F0010C01E00FE008E0206800F5C07053
:101BF00000EB0110C0F800C00020F0BD606A40F4A6
:101C0000001060620120F8E7606A40F480206062A2
:101C10000120F2E7F0B504460A46216894F8205006
:101C2000012D01D0022D74D1D1F8000240F0010045
:101C3000C1F80002107D00F01F06012000FA06F333
:101C4000D1F81C029843C1F81C02D069C8B9D1F878
:101C50000C029843C1F80C02908880B2968940EA41
:101C6000064601F51070576940F83760108880B259
:101C7000168940EA064601F51070576900EBC70067
:101C80004660D069012819D1D1F80C021843C1F877
:101C90000C02908880B2168840EA064601F5107062
:101CA000576940F83760908980B2168940EA064645
:101CB00001F51070576900EBC7004660906928B9BC
:101CC000D1F804029843C1F8040204E0D1F80402F8
:101CD0001843C1F80402106928B9D1F814029843D6
:101CE000C1F8140204E0D1F814021843C1F8140238
:101CF000106A012804D1D1F81C021843C1F81C0253
:101D0000D1F8000220F00100C1F800020020F0BD6F
:101D1000FFE7606A40F4802060620120F7E710B5B9
:101D20000246002092F82030012B01D0022B09D16D
:101D300021B91468E46804F0030003E0146824691E
:101D400004F0030010BD70B5044694F82050012D36
:101D500001D0022D7DD151B92068C06800F0030088
:101D600080B9606A40F400106062012070BD206894
:101D7000006900F0030028B9606A40F40010606256
:101D80000120F3E7206800F5D87000EB011000682F
:101D900000F004009060906840B9206800F5D870A9
:101DA00000EB01100068400D106007E0206800F5AE
:101DB000D87000EB01100068C0085060206800F582
:101DC000D87000EB0110006800F00200D0602068BD
:101DD00000F5D87000EB0110406800F00F000828F3
:101DE00002D30820106108E0206800F5D87000EBED
:101DF0000110406800F00F001061206800F5D870F5
:101E000000EB0110406800F47F40000A90612068F8
:101E100000F5D87000EB01104068000C506120689C
:101E200000F5D87000EB011080681870206800F58C
:101E3000D87000EB0110806800F47F40000A5870F1
:101E4000206800F5D87000EB0110806800F47F0076
:101E500000E03CE0000C9870206800F5D87000EBC2
:101E600001108068000ED870206800F5D87000EB73
:101E70000110C0681871206800F5D87000EB0110DF
:101E8000C06800F47F40000A5871206800F5D870DF
:101E900000EB0110C06800F47F00000C987120680E
:101EA00000F5D87000EB0110C068000ED87131B990
:101EB0002068C06840F020002668F06005E02068D7
:101EC000006940F020002668306100204EE7606A1B
:101ED00040F480206062012048E70146002091F82C
:101EE0002020012A01D0022A11D10B689B6803F03F
:101EF000806303B1401C0B689B6803F0006303B16F
:101F0000401C0B689B6803F0805303B1401C704772
:101F100070B504460CB9012070BD94F8200010B9CA
:101F2000204600F0AFF82068006840F0010021680A
:101F3000086000F0C5FA05460DE000F0C1FA401B4C
:101F40000A2808D9606A40F400306062052084F8ED
:101F500020000120E0E72068406800F00100002830
:101F6000EBD02068006820F002002168086000F0D3
:101F7000A7FA05460DE000F0A3FA401B0A2808D98D
:101F8000606A40F400306062052084F8200001207F
:101F9000C2E72068406800F002000028EBD1207EF4
:101FA000012806D12068006840F0800021680860A0
:101FB00005E02068006820F0800021680860607EED
:101FC000012806D12068006840F0400021680860C0
:101FD00005E02068006820F0400021680860A07ECD
:101FE000012806D12068006840F0200021680860C0
:101FF00005E02068006820F0200021680860E07E8D
:10200000012806D12068006820F0100021680860CF
:1020100005E02068006840F0100021680860207F1B
:10202000012806D12068006840F008002168086097
:1020300005E02068006820F0080021680860607FE3
:10204000012806D12068006840F00400216808607B
:1020500005E02068006820F0040021680860D4E9E9
:102060000201084321690843616908436168491E08
:1020700008432168C86100206062012084F82000C4
:10208000002049E710B586B0044600200290039076
:10209000049005901A49206888422ED100BF194843
:1020A000C06940F000701749C8610846C06900F077
:1020B0000070019000BF00BF00BF0846806940F07B
:1020C000040088610846806900F00400019000BFA8
:1020D00000BFC814029000200390049002A90A488F
:1020E00000F058F84FF48050029002200390032033
:1020F000059002A9044800F04DF806B010BD00009C
:1021000000640040001002400008014070B5044621
:1021100094F82000012822D1022084F820002068B1
:10212000006820F001002168086000F0C9F9054648
:102130000DE000F0C5F9401B0A2808D9606A40F498
:1021400000306062052084F82000012070BD206806
:10215000406800F001000028EBD16062F6E7606A99
:1021600040F4002060620120F0E7000070B50446F2
:1021700000F0A6F906462546681C10B10448007810
:10218000054400BF00F09CF9801BA842FAD370BD43
:10219000080000202DE9F8470346002294466EE12E
:1021A0004FF0010808FA02F4D1F8008008EA0400B0
:1021B000A0427DD1DFF8DCA2D1F80480A8EB0A09A7
:1021C000D0453AD014DCB8F1030F50D009DCB8F197
:1021D000000F31D0B8F1010F1CD0B8F1020F49D176
:1021E00020E0B8F1110F18D0B8F1120F42D11EE063
:1021F000B9F5881F25D006DCB9F5803F20D0B9F5A8
:10220000801F37D11AE0B9F5001F18D0B9F5041FA7
:1022100030D117E0D1F80CC02DE0D1F80C8008F1D6
:10222000040C28E0D1F80C8008F1080C23E0D1F868
:102230000C8008F10C0C1EE000BF00BF00BF00BF07
:1022400000BF00BFD1F80880B8F1000F02D14FF0F5
:10225000040C0BE0D1F80880B8F1010F03D14FF066
:10226000080C1C6102E04FF0080C5C6103E04FF0C9
:10227000000C00E000BF00BFFF2801D8984601E035
:1022800003F104084646FF2802D84FEA820803E01B
:10229000A2F108084FEA88084746D6F800804FF0B8
:1022A0000F0909FA07F928EA09080CFA07F900E00A
:1022B00088E048EA0908C6F80080D1F8048008F0F0
:1022C0008058B8F1805F7DD100BFDFF8CC81D8F8AD
:1022D000188048F00108DFF8C091C9F81880C84696
:1022E000D8F8188008F00108CDF8008000BF00BFC2
:1022F0004FEAB9384FEA920958F829504FEA8278E4
:102300004FEA18794FF00F0808FA09F825EA08058E
:10231000DFF88881434502D14FF0000816E0DFF86E
:102320008081434502D14FF001080FE0DFF874814E
:10233000434502D14FF0020808E0DFF86C814345C5
:1023400002D14FF0030801E04FF004084FEA827910
:102350004FEA197908FA09F848EA0505DFF84C81CF
:102360004FEA920948F82950D1F8048008F48018FF
:10237000B8F5801F0AD1DFF83881D8F8008048EA24
:102380000008DFF82C91C9F8008009E0DFF820810F
:10239000D8F8008028EA0008DFF81491C9F8008016
:1023A000D1F8048008F40018B8F5001F10D1DFF848
:1023B000008108F10408D8F8008048EA0008DFF836
:1023C000F09000E05AE009F10409C9F800800DE03E
:1023D000DFF8DC8008F10408D8F8008028EA00085B
:1023E000DFF8CC9009F10409C9F80080D1F8048025
:1023F00008F40038B8F5003F0ED1DFF8B480A8F13A
:102400000408D8F8008048EA0008DFF8A490A9F191
:102410000409C9F800800DE0DFF89480A8F10408F1
:10242000D8F8008028EA0008DFF88490A9F10409B0
:10243000C9F80080D1F8048008F48038B8F5803FEE
:102440000ED1DFF86C80A8F10808D8F8008048EABF
:102450000008DFF85C90A9F10809C9F800800DE0D8
:10246000DFF84C80A8F10808D8F8008028EA0008B6
:10247000DFF83C90A9F10809C9F80080521CD1F896
:10248000008028FA02F8B8F1000F7FF489AEBDE8A9
:10249000F887000000001110001002400008014001
:1024A000000C0140001001400014014008000140F0
:1024B000080401400AB1016101E00B0403617047A7
:1024C00001480068704700000000002003480068D1
:1024D000034909780844014908607047000000205A
:1024E0000800002010B50848006840F010000649B8
:1024F0000860032000F09EF80F2000F007F800F0BD
:102500002BF8002010BD00000020024070B50446EA
:102510000E4800784FF47A71B1FBF0F00C4909686D
:10252000B1FBF0F5284600F057FF08B1012070BD5F
:10253000102C07D200222146501E00F03DF805481D
:10254000046001E00120F2E70020F0E7080000202D
:102550000C0000200400002008B500BF144880696A
:1025600040F00100124988610846806900F00100CE
:10257000009000BF00BF00BF0846C06940F0805017
:10258000C8610846C06900F08050009000BF00BFDD
:1025900000220F21901E00F00FF800BF0549486887
:1025A00020F0E06040F00070486000BF08BD00000F
:1025B00000100240000001402DE9F05F80460D460A
:1025C0001646002702F09CFC074639462A46334649
:1025D00001F00700C0F1070ABAF1040F02D94FF069
:1025E000040A01E0C0F1070AD14600F1040ABAF179
:1025F000070F02D24FF0000A01E0A0F1030AD4460F
:102600004FF0010A0AFA09FAAAF1010A0AEA020AD3
:102610000AFA0CFA4FF0010B0BFA0CFBABF1010BB1
:102620000BEA030B4AEA0B042146404602F070FC19
:10263000BDE8F09F00BF00F00702064B19684FF697
:10264000FF031940044B0B4343EA0221014B19607D
:1026500000BF70470CED00E00000FA0570B50446BD
:102660000D460CB9012070BD5A48006800F0070003
:10267000A8420ED25748006820F007002843554969
:1026800008600846006800F00700A84201D0012059
:10269000E9E7207800F0020002281DD1207800F040
:1026A0000400042805D14C48406840F4E0604A49E1
:1026B0004860207800F00800082805D146484068A6
:1026C00040F46050444948604348406820F0F000BE
:1026D000A168084340494860207800F0010078B3C1
:1026E0006068012806D13C48006800F4003090B9C9
:1026F0000120B8E76068022806D13748006800F07A
:10270000007040B90120AEE73348006800F00200D5
:1027100008B90120A7E73048406820F0030061684D
:1027200008432D494860FFF7CBFE064609E0FFF756
:10273000C7FE801B41F28831884202D9032092E70C
:1027400007E02548406800F00C006168B0EB810F9D
:10275000EDD12048006800F00700A8420ED91D48BE
:10276000006820F0070028431A49086008460068FE
:1027700000F00700A84201D0012074E7207800F0A3
:102780000400042807D11448406820F4E060E168A0
:10279000084311494860207800F00800082808D153
:1027A0000D48406820F46050216940EAC1000A49A0
:1027B000486000F03FF808494968C1F30311074A2F
:1027C000515CC8400649086006480068FFF79EFE55
:1027D000002048E700200240001002402E8B000835
:1027E0000C00002004000020014800687047000031
:1027F0000C00002000B5FFF7F7FF04494968C1F35A
:102800000221034A515CC84000BD00000010024094
:102810003E8B000800B5FFF7E7FF04494968C1F3A4
:10282000C221034A515CC84000BD000000100240B4
:102830003E8B000870B500210022002400230020F8
:10284000134D696801F00C05F5B1042D02D0082D77
:1028500019D101E00F4819E00F4DC1F38346AB5D7C
:1028600001F4803555B10A4D6D68C5F340450B4EF6
:10287000725D084D5D43B5FBF2F402E0084D03FBC9
:1028800005F4204602E000BF024800BF00BF70BD53
:102890000010024000127A001C8B00082C8B0008EC
:1028A00000093D00F8B504460CB90120F8BD2078B8
:1028B00000F00100002878D0F848406800F00C00D3
:1028C00004280CD0F548406800F00C00082811D10D
:1028D000F248406800F48030B0F5803F0AD1EF48FC
:1028E000006800F4003000285FD0606800285CD1E8
:1028F0000120DBE700BF6068B0F5803F06D1E74804
:10290000006840F48030E549086028E0606858B904
:10291000E248006820F48030E0490860084600681A
:1029200020F4802008601AE06068B0F5A02F0BD179
:10293000DA48006840F48020D849086008460068FA
:1029400040F4803008600AE0D448006820F4803009
:10295000D24908600846006820F48020086000BF63
:10296000606888B1FFF7ACFD054606E0FFF7A8FDFB
:10297000401B642801D9032098E7C848006800F488
:1029800000300028F2D010E0FFF79AFD054606E07F
:10299000FFF796FD401B642801D9032086E7BF4856
:1029A000006800F400300028F2D1207800F0020026
:1029B000022857D1B948406800F00C0050B1B74820
:1029C000406800F00C00082818D1B448406800F4B2
:1029D000803098B9B148006800F0020020B1206949
:1029E000012801D0012061E7AC48006820F0F80020
:1029F000616940EAC100A949086033E02069E8B193
:102A00000120A7490860FFF75BFD054606E0FFF7D8
:102A100057FD401B022801D9032047E79F48006863
:102A200000F002000028F2D09C48006820F0F80076
:102A3000616940EAC1009949086013E000209849A3
:102A40000860FFF73DFD054606E0FFF739FD401B36
:102A5000022801D9032029E79048006800F002000D
:102A60000028F2D1207800F0080008282DD1A069B4
:102A7000B8B101208B490860FFF722FD054606E04A
:102A8000FFF71EFD401B022801D903200EE78348F3
:102A9000406A00F002000028F2D0012001F0C6FEDA
:102AA00013E000207F490860FFF70AFD054606E0B5
:102AB000FFF706FD401B022801D90320F6E6774800
:102AC000406A00F002000028F2D1207800F00400F3
:102AD000042873D100277148C06900F0805070B994
:102AE00000BF6E48C06940F080506C49C86108461C
:102AF000C06900F08050009000BF00BF01276A4805
:102B0000006800F48070B0B96748006840F48070D5
:102B100065490860FFF7D4FC054606E0FFF7D0FCE6
:102B2000401B642801D90320C0E65F48006800F418
:102B300080700028F2D000BFE068012806D1574815
:102B4000006A40F001005549086227E0E06858B982
:102B50005248006A20F00100504908620846006AA5
:102B600020F00400086219E0E06805280BD14B480A
:102B7000006A40F00400494908620846006A40F0D3
:102B8000010008620AE04548006A20F0010043495C
:102B900008620846006A20F00400086200BFE0688E
:102BA000A0B1FFF78DFC054609E0FFF789FC401B4B
:102BB00041F28831884202D9032077E622E0374883
:102BC000006A00F002000028EFD012E0FFF778FC66
:102BD000054608E0FFF774FC401B41F2883188424B
:102BE00001D9032062E62D48006A00F002000028A7
:102BF000F0D1012F05D12948C06920F08050274924
:102C0000C86100BFE069C8B32448406800F00C0008
:102C1000082860D0E069022848D1002020490866D1
:102C2000FFF74EFC054606E0FFF74AFC401B022872
:102C300001D903203AE61948006800F00070002826
:102C4000F2D1206AB0F5803F07D11448406820F4E3
:102C50000030A168084311494860D4E908010843DD
:102C60000E49496821F4741108430C494860012059
:102C70000B490866FFF724FC054607E03DE0FFF737
:102C80001FFC401B022801D903200FE603480068FF
:102C900000F000700028F2D02FE000000010024089
:102CA000000042428004424200700040002014496B
:102CB0000866FFF705FC054606E0FFF701FC401B30
:102CC000022801D90320F1E50E48006800F00070E9
:102CD0000028F2D111E0E069012800D1E6E50948B9
:102CE000466806F48031206A814204D106F47011EE
:102CF000606A814201D00120D8E50020D6E50000BD
:102D0000000042420010024010B504460CB90120F8
:102D100010BD606A38B96068B0F5827F00D105E007
:102D20000021E16102E00021216161610021A162D5
:102D300094F8510028B9002084F85000204600F093
:102D400043F8022084F851002068006820F0400019
:102D500021680860A08800F48270218901F4044190
:102D60000843A18901F400610843217C01F00201BC
:102D70000843217D01F001010843218B01F400711A
:102D80000843217F01F0380108432021095D01F04B
:102D900080010843218D01F4005108432168086037
:102DA0000421A06901EA1040216848602068C069D8
:102DB00020F400602168C86100206065012084F86B
:102DC00051000020A4E7000010B586B004460020A2
:102DD00002900390049005901A49206888422FD1F0
:102DE00000BF1948C06940F480401749C8610846CF
:102DF000C06900F48040019000BF00BF00BF0846DA
:102E0000806940F0080088610846806900F0080089
:102E1000019000BF00BF4FF42040029002200390B9
:102E20000320059002A90948FFF7B4F94FF4804048
:102E3000029000200390049002A90448FFF7AAF929
:102E400006B010BD0038004000100240000C0140E8
:102E50002DE9F8430446884616461D4694F851006D
:102E6000012802D00220BDE8F8836068B0F5827FB7
:102E70000CD1A06850B9042084F851003346424672
:102E800041462046009500F083F9ECE7FFF718FB78
:102E90000746B8F1000F00D00EB90120E3E700BFEC
:102EA00094F85000012801D10220DCE7012084F8C9
:102EB000500000BF042084F8510000206065C4F871
:102EC0003880A687E6872063A086E0862064606459
:102ED000A068B0F5004F0BD12068006820F04000DA
:102EE000216808602068006820F48040216808603C
:102EF0002068006800F04000402805D02068006885
:102F000040F0400021680860E06830BB21E02068A4
:102F1000806800F0010050B12068007BA16B087050
:102F2000A06B401CA063E08F401EE08711E0FFF71C
:102F3000C7FAC01BA84201D3681C00B94DB90120D3
:102F400084F8510000BF002084F8500000BF032027
:102F500089E7E08F0028DAD125E021E02068806849
:102F600000F0010050B12068C068A16B0880A06B20
:102F7000801CA063E08F401EE08711E0FFF7A0FAFD
:102F8000C01BA84201D3681C00B94DB9012084F8C8
:102F9000510000BF002084F8500000BF032062E70A
:102FA000E08F0028DAD13A462946204601F052FC4B
:102FB00008B120206065012084F8510000BF002086
:102FC00084F8500000BF606D08B101204BE700207D
:102FD00049E72DE9F84304460F4616461D46FFF71C
:102FE0006FFA8046B14694F85100012802D00220C1
:102FF000BDE8F88307B10EB90120F9E700BF94F8E6
:103000005000012801D10220F2E7012084F850008D
:1030100000BF032084F85100002060652763A68666
:10302000E686A063A087E08760642064A068B0F5AE
:10303000004F0BD12068006820F040002168086034
:103040002068006840F480402168086020680068BB
:1030500000F04000402805D02068006840F04000A3
:1030600021680860E068B0F5006F37D1606810B182
:10307000B9F1010F09D1206B00882168C860206B6D
:10308000801C2063E08E401EE08623E0206880687C
:1030900000F0020002280AD1206B00882168C86075
:1030A000206B801C2063E08E401EE08612E0FFF75C
:1030B00007FAA0EB0800A84201D3681C00B94DB97B
:1030C000012084F8510000BF002084F8500000BFA8
:1030D00003208DE7E08E0028D8D136E0606810B17B
:1030E000B9F1010F09D1206B007821680873206BBA
:1030F000401C2063E08E401EE08623E0206880684C
:1031000000F0020002280AD1206B007821680873C1
:10311000206B401C2063E08E401EE08612E0FFF72B
:10312000CFF9A0EB0800A84201D3681C00B94DB943
:10313000012084F8510000BF002084F8500000BF37
:10314000032055E7E08E0028D8D142462946204684
:1031500001F0BCFB08B120206065A06850B900BF39
:10316000002000902068C06800902068806800906F
:1031700000BF00BF012084F8510000BF002084F888
:10318000500000BF606D08B1012031E700202FE73B
:103190002DE9FE4F04460F4690461D460C9E012029
:1031A0000190FFF78DF9814694F851B06068029064
:1031B000AA46BBF1010F0BD00298B0F5827F04D173
:1031C000A06810B9BBF1040F02D00220BDE8FE8F49
:1031D0001FB1B8F1000F00D00DB90120F6E700BF14
:1031E00094F85000012801D10220EFE7012084F873
:1031F000500000BF94F85100042802D0052084F844
:10320000510000206065C4F83880E587A5872763F2
:10321000E586A586206460642068006800F04000B0
:10322000402805D02068006840F040002168086010
:10323000E068B0F5006F52D1606810B1BAF1010FCB
:1032400009D1206B00882168C860206B801C206336
:10325000E08E401EE0863BE02068806800F00200BF
:10326000022810D1E08E70B1019801280BD1206B9B
:1032700000882168C860206B801C2063E08E401E9F
:10328000E086002001902068806800F0010068B1AD
:10329000E08F58B12068C068A16B0880A06B801CCB
:1032A000A063E08F401EE08701200190FFF708F93E
:1032B000A0EB0900B0420BD3701C48B1012084F888
:1032C000510000BF002084F8500000BF03207DE7BC
:1032D000E08E0028C0D1E08F0028BDD152E06068A8
:1032E00010B1BAF1010F09D1206B00782168087381
:1032F000206B401C2063E08E401EE0863CE020688E
:10330000806800F00200022810D1E08E70B10198B0
:1033100001280BD1206B007821680873206B401CBA
:103320002063E08E401EE0860020019020688068C7
:1033300000F0010068B1E08F58B12068C068A16B4F
:103340000870A06B401CA063E08F401EE087012046
:103350000190FFF7B5F8A0EB0900B04201D3701C53
:1033600000B94EB9012084F8510000BF002084F854
:10337000500000BF032029E7E08E0028BFD1E08F76
:103380000028BCD14A463146204601F09FFA40B1A0
:103390002020606500BF002084F8500000BF01209D
:1033A00014E7A06850B900BF002000902068C068F2
:1033B000009020688068009000BF00BF012084F862
:1033C000510000BF002084F8500000BF606D08B1BC
:1033D0000120FBE60020F9E670B504462546681E8C
:1033E000B0F1807F01D301200FE0681E4FF0E02193
:1033F00048610F214FF0FF3001F08AFD00204FF0AF
:10340000E021886107200861002070BD10B50446E6
:103410000CB9012010BDA06900B100E000BF94F814
:10342000410028B9002084F84000204600F02AF826
:10343000242084F841002068C06820F400502168EE
:10344000C860204601F074FB2068006920F49040B9
:10345000216808612068406920F02A0021684861DD
:103460002068C06840F400502168C8600020606493
:10347000202084F8410084F842000020606300BFEF
:10348000C8E7000010B586B0044600200290039003
:10349000049005901A49206888422ED100BF19482F
:1034A000806940F48040174988610846806900F4CB
:1034B0008040019000BF00BF00BF0846806940F017
:1034C000040088610846806900F00400019000BF94
:1034D00000BF48150290022003900320059002A926
:1034E0000948FEF757FE4FF48060029000200390D9
:1034F000049002A90448FEF74DFE06B010BD00007E
:103500000038014000100240000801402DE9F84F4A
:1035100004460E46174699464FF0000A94F84100BB
:10352000202850D106B117B90120BDE8F88F00203E
:103530006064212084F84100FEF7C2FF8246A78420
:10354000E784A068B0F5805F04D1206910B9002538
:10355000B04602E035464FF000081EE05346002218
:1035600080212046CDF8009001F060FB20B12020A2
:1035700084F841000320D8E745B9B8F80000C0F34B
:1035800008002168486008F1020803E028782168F3
:1035900048606D1CE08C401EE084E08C0028DDD18A
:1035A0005346002240212046CDF8009001F03EFB1A
:1035B00020B1202084F841000320B6E7202084F8C1
:1035C00041000020B1E70220AFE700BFFEE70000A6
:1035D000FEB500F061FA0021414801F019F940F20E
:1035E0005B7240493E48FEF7C9F94FF480603E499E
:1035F000CDE900013D4B4FF47A72394902903C48C5
:1036000000F0E2FA00203B49C876042008723AA094
:10361000C86000200883012088765C2138A0FCF770
:1036200036FE28B15C2136A0FCF731FE401C00E0DC
:1036300033A006462F21FCF72AFE88B15C2130A07A
:10364000FCF725FE28B15C212DA0FCF720FE401CD4
:1036500000E02BA006462F21FCF719FE401C0BE0D2
:103660005C2127A0FCF713FE28B15C2124A0FCF705
:103670000EFE401C00E022A005469022294627A00D
:1036800001F01AFC1B491A4800F0C8FAC4B240F213
:103690005B711448C078CDE9000112488378427804
:1036A000017826A001F008FC0CB930A000E031A0A0
:1036B000014632A001F000FC35A137A001F0FCFB6F
:1036C000394B002232A10A4800F03BFFC4B20CB9CA
:1036D00036A000E039A001463CA001F0EDFBFEBDA4
:1036E0004C2D00209E0000205C3500205C31002025
:1036F000F02C0020A40000207573657231000000DA
:103700002E2E5C496E665C57353530305C496E66EE
:103710005F57353530302E63000000005B253230B6
:10372000733A25645D2020D7BCB1B8C1ACBDD3B716
:10373000FECEF1C6F72E2E2E0D0A0000436F6E6EE0
:1037400065637420746F20746865204D5154542053
:103750007365727665723A2025642E25642E256481
:103760002E25643A25640D0A00000000737563631A
:10377000657373006661696C65640000B7FECEF125
:10378000C6F7C1ACBDD33A25730D0A0D0A0000007F
:103790006174677569677500D7BCB1B8B6A9D4C440
:1037A0005B25735D0D0A0000A93A0008746F70690B
:1037B00063B6A9D4C4B3C9B9A6000000746F706918
:1037C00063B6A9D4C4CAA7B0DC00000025730D0AF3
:1037D0000000000010B51E21014800F026FF10BDBA
:1037E000F02C00200149086070470000FC00002018
:1037F00070B504460E461546002005490870084677
:103800008660C56002462146024800F0F3FB70BDA9
:103810005C390020F02C00203EB5062273494FF49D
:10382000106001F005FB04227149900101F000FBDA
:10383000042270494FF4A06001F0FAFA04226E49A4
:103840004FF4706001F0F4FA04226949900101F02C
:103850006FFA042267494FF4A06001F069FA04226C
:1038600065494FF4706001F063FA5C2163A0FCF7D6
:103870000EFD28B15C2161A0FCF709FD401C00E0B1
:103880005EA005462F21FCF702FD88B15C215BA0FC
:10389000FCF7FDFC28B15C2158A0FCF7F8FC401CAB
:1038A00000E056A005462F21FCF7F1FC401C0BE080
:1038B0005C2152A0FCF7EBFC28B15C214FA0FCF787
:1038C000E6FC401C00E04DA004464B48C0784A4945
:1038D0008978494A5278CDE9002102904648037818
:1038E000592221464CA001F0E7FA5C2143A0FCF7E5
:1038F000CEFC28B15C2141A0FCF7C9FC401C00E0D3
:103900003EA005462F21FCF7C2FC88B15C213BA0FC
:10391000FCF7BDFC28B15C2138A0FCF7B8FC401CCA
:1039200000E036A005462F21FCF7B1FC401C0BE05F
:103930005C2132A0FCF7ABFC28B15C212FA0FCF786
:10394000A6FC401C00E02DA004462A48C1788078DF
:10395000284A5278CDE900200291264803785A225D
:10396000214637A001F0A8FA5C2124A0FCF78FFCC7
:1039700028B15C2121A0FCF78AFC401C00E01FA0BC
:1039800005462F21FCF783FC88B15C211BA0FCF7C6
:103990007EFC28B15C2119A0FCF779FC401C00E0FA
:1039A00016A005462F21FCF772FC401C0BE05C21A1
:1039B00012A0FCF76CFC28B15C2110A0FCF767FC9E
:1039C000401C00E00DA004460948C07808498978E9
:1039D000074A5278CDE900210290054803785B221E
:1039E000214622A001F068FA3EBD00008C000020B4
:1039F00092000020960000209A0000202E2E5C49A4
:103A00006E665C57353530305C496E665F573535CC
:103A100030302E63000000005B253230733A25649D
:103A20005D20202049502020202020202020202000
:103A30003A2025642E25642E25642E25640D0A0067
:103A40005B253230733A25645D2020205375626E09
:103A50006574204D61736B203A2025642E25642EF9
:103A600025642E25640D0A0D0A0000005B25323006
:103A7000733A25645D202020476174657761792061
:103A8000202020203A2025642E25642E25642E2512
:103A9000640D0A0D0A00000010B500F065F800F092
:103AA0007DF8FFF7B9FE10BDF8B504465C2121A0F2
:103AB000FCF7EDFB28B15C211EA0FCF7E8FB401CE5
:103AC00000E01CA006462F21FCF7E1FB88B15C2139
:103AD00018A0FCF7DCFB28B15C2116A0FCF7D7FB93
:103AE000401C00E013A006462F21FCF7D0FB401C31
:103AF0000BE05C210FA0FCF7CAFB28B15C210DA0F4
:103B0000FCF7C5FB401C00E00AA005466068806821
:103B1000009060687422294643680DA001F0CCF93A
:103B20002268928991B2226890680E4A1268904782
:103B3000F8BD00002E2E5C496E665C57353530307E
:103B40005C496E665F57353530302E6300000000EB
:103B50005B253230733A25645D2020252E2A730DB3
:103B60000A000000FC00002010B50649064804F0D9
:103B70001FF80649064804F02FF80649064804F0E5
:103B800003F810BD991A0008851A0008AD1A00083C
:103B9000651A0008E9810008C581000810B50022F7
:103BA0004FF480710748FEF785FC4FF4C87004F0AD
:103BB0005DFB012211020348FEF77CFC642004F047
:103BC00055FB10BD000C01402DE9F05F04460E4688
:103BD00017469846DDE90BABDDF8289026650025F1
:103BE00005E0002104F1240040F835106D1C052D7E
:103BF000F7DB6760C4F81080C4F80890C4F814A01C
:103C0000C4F80CB0002020622077E064012020601E
:103C100004F1540000F03AFFBDE8F09FF0B59BB00E
:103C200004460D464FF0FF365822254903A8FCF7FD
:103C3000DDFA0027206A00B13BE019A800F026FF5A
:103C400019A8616800F01AFF05B903AD288BA061BF
:103C500004F15400A16900F005FF2A46A16820691B
:103C600000F07AFA071E00DC23E019AA3946204644
:103C700004F08CF8061E00D01BE019AA0221204691
:103C800004F025FC022811D1FF20029000200190B1
:103C900002A901A8E368626900F04AF8012802D18C
:103CA0009DF8086001E04FF0FF3601E04FF0FF366D
:103CB00000BF0EB90120206230461BB0F0BD0000ED
:103CC000488B00082DE9FE4F04460D4616461F4658
:103CD000DDF830A00020029001978046814601A8BF
:103CE00003F014FE8DF808000298C0F3C00028709D
:103CF0000298C0F3031020706946019800F01CF987
:103D00008146019908440190DDE9001000EB0108AB
:103D10000198A8EB0000022800DA06E001A803F0F1
:103D2000FCFD30804FF0010900BF4846BDE8FE8F22
:103D30002DE9FF4704460D4616469946002003909C
:103D4000029600278046009002A803F0DFFD8DF860
:103D50000C000398C0F30310022800D01FE001A953
:103D6000029800F0E9F88046029908440290DDE9E3
:103D7000011047180298381A022800DA0FE002A84A
:103D800003F0C4FD8DF800000098C0F3C01020704F
:103D900002A803F0BBFD28704FF0010800BF4046A9
:103DA00004B0BDE8F0872DE9FF5F06460C461746D4
:103DB0009846DDE90FABDDF83890002003901198AC
:103DC0000290002500200190009002A803F09EFDC3
:103DD0008DF80C000398C0F30310032800D032E0E4
:103DE0000398C0F3C00030700398C0F34100206016
:103DF000039800F0010038706946029800F09CF8C2
:103E000001900299084402900099029845182A46A8
:103E100002A9484603F08EFD10B10298281A00D579
:103E200011E02068002804DD02A803F076FDA8F860
:103E300000000298281ACBF800000298CAF8000087
:103E40000120019000BF019804B0BDE8F09F2DE96A
:103E5000FE4F05460E4614461F46DDE90C9B00202A
:103E60000290CDF804908046824601A803F04EFDF2
:103E70008DF808000298C0F30310092800D02CE048
:103E80006946019800F058F882460199084401906B
:103E9000DDE9001000EB01080198A8EB0000022802
:103EA00000DA1AE001A803F038FD28800020206025
:103EB0000DE02068B04202DD4FF0FF3A0DE001A8AE
:103EC00003F024FD2268511C216047F8220001986C
:103ED0004045EED34FF0010A00BF5046BDE8FE8FCB
:103EE0002DE9F84305460C460126002700202060F6
:103EF00000BF4FF0FF38781C0746042801DD00BFE3
:103F000017E001216846A8478046B8F1010F00D0AC
:103F10000FE09DF8001001F07F01206801FB060012
:103F20002060F6019DF8000000F080000028E0D13C
:103F300000BF3846BDE8F88370B504460D46034817
:103F4000046029460248FFF7CBFF70BD48010020FE
:103F50005959000830B50246002300BF0846CD1766
:103F600001EB5565ED11A1EBC515ECB2CD1701EBD9
:103F70005565E911002901DD44F0800418465B1CF9
:103F800014540029EADC184630BD2DE9F0410446FE
:103F90000E460027B846206828B125682068FCF73F
:103FA00049F9074601E0A56867683046FCF742F921
:103FB0008046474508D13A4631462846FCF758F92D
:103FC00010B90120BDE8F0810020FBE7401C8028EB
:103FD00001DA401C0AE0B0F5804F01DA801C05E0F0
:103FE0000349884201DAC01C00E0001D7047000050
:103FF000FFFF1F002DE9F0418CB005460E46144628
:104000004FF0FF380020079008900990079600278E
:10401000286A00B963E00AA800F038FD0AA86968B8
:1040200000F02CFD2078012802D02078022803D14E
:10403000284602F08FF9A080D4E90201CDE90501FC
:1040400007A807C802AB07C3A0886178CDE90010B4
:1040500023780022A968286900F076F90746002F26
:1040600000DC3CE00AAA3946284603F08FFEB0F196
:10407000000800D033E02078012816D10AAA0421D4
:10408000284604F024FA04280CD1E868009006AA17
:1040900005A904A86B69FFF715FE012801D04FF0B0
:1040A000FF381BE04FF0FF3818E02078022815D1C8
:1040B0000AAA0721284604F00AFA07280CD1E86862
:1040C000009006AA05A904A86B69FFF7FBFD01286B
:1040D00001D04FF0FF3801E04FF0FF3800BF4046FD
:1040E0000CB0BDE8F0812DE9FC4704460E461546AC
:1040F0001F46DDF828800020019081460094042EA0
:1041000002DA6FF0010924E0019865F307100190CD
:10411000019867F3C3000190062D01D1012100E051
:104120000021019861F3420001909DF80410684657
:1041300004F089FA02210098FFF70CFF0099084467
:1041400000904146684604F084FA0098A0EB040908
:1041500000BF4846BDE8FC872DE9FE4305460E46F4
:104160001446029500200190009000274FF0FF3880
:10417000204600F0A5F807468146FFF727FFB0422A
:1041800002DD6FF001088FE000208DF80400019837
:1041900020F0F000103001909DF8041002A804F007
:1041A00052FA39460298FFF7D5FE02990844029068
:1041B000207A042808D13EA102A804F030FA042194
:1041C00002A804F040FA07E03BA102A804F027FA95
:1041D000032102A804F037FA00208DF80000A17E28
:1041E000009861F341000090E07E08B1012100E0F9
:1041F0000021009861F3820000900098C0F38000D5
:1042000058B194F83D10009861F3C400009094F800
:104210003C10009861F345100090206C08B9A06C28
:1042200020B1009820F0800080300090E06C08B948
:10423000606D20B1009820F04000403000909DF863
:10424000001002A804F0FFF9218B02A804F001FA83
:1042500002A8D4E90423E16804F013FAE07E58B11F
:1042600002A8D4E90A23616A04F00BFA02A8D4E98F
:104270000D23216B04F005FA0098C0F3C01028B19B
:1042800002A8D4E91123216C04F0FBF90098C0F3D3
:10429000801028B102A8D4E91423E16C04F0F1F9EC
:1042A0000298A0EB050800BF4046BDE8FE83000071
:1042B0004D515454000000004D514973647000008A
:1042C00070B504460025207A032801D10C2503E0AF
:1042D000207A042800D10A25D4E90412E06800F00D
:1042E000B8F9801C0544E07E68B1D4E90A12606A1E
:1042F00000F0AFF9861CD4E90D12206B00F0A9F98B
:104300003044801C0544206C08B9A06C30B1D4E95D
:104310001112206C00F09DF9801C0544E06C08B976
:10432000606D30B1D4E91412E06C00F092F9801C99
:104330000544284670BD70B504460D460C2229463A
:10434000204600F0D8F870BD2DE9F04F87B0054643
:104350000F4690461C46DDE915B6DDE9109A069534
:1043600000200590049003900096204612A90EC9E3
:1043700000F042F804900290FFF728FEB84203DDF7
:104380006FF00100039033E0059820F0F00030302A
:104390000590059868F3C3000590059864F3420002
:1043A0000590059869F3000005909DF8141006A883
:1043B00004F049F904990698FFF7CCFD06990844E2
:1043C000069006A812A90EC904F05BF9002C03DDC3
:1043D000514606A804F03DF9324659460698FBF7C7
:1043E00005FF0698304406900698401B039000BFD6
:1043F000039807B0BDE8F08F7FB50546089E0024FE
:1044000001A807C800F025F9801C30440444002DA1
:1044100000DDA41C204604B070BD2DE9FF5F0546F9
:104420000E4617469846DDE90E9A03950020029045
:104430000190009000245146484600F045F883461C
:104440000190FFF7C3FDB04202DDA01E009037E0EF
:1044500000208DF80800029820F0F00080300290D3
:10446000029867F3C3000290029820F00600801CB7
:1044700002909DF8081003A804F0E5F8019903984C
:10448000FFF768FD039908440390414603A804F030
:10449000E0F800240EE004EB44000AEB800C03A8D3
:1044A0009CE80E0004F0EDF81098015D03A804F0FC
:1044B000CAF8641C4C45EEDB0398401B009000BF1B
:1044C000009804B0BDE8F09F2DE9F04105460E4686
:1044D000022700240AE004EB440006EB800393E883
:1044E000070000F0B6F8C01C0744641CAC42F2DBC5
:1044F0003846BDE8F0812DE9FC4104460D461646DC
:1045000000200190471E0094022D01DA871E15E05D
:1045100000208DF80400019866F3071001909DF8C3
:104520000410684604F08FF800210098FFF712FD90
:104530000099084400900098071B00BF3846BDE86A
:10454000FC812DE9F0478CB004460D4616461F4607
:104550004FF0FF384FF000090020079008900990B5
:1045600007950696206A00B95BE00AA800F08EFA6B
:104570000AA8616800F082FA204601F0EBFE1FFAFB
:1045800080FA06A807A90122CDE90021029053462E
:104590000022A1682069FFF740FF8146B9F1000FB2
:1045A00000DC3EE00AAA4946204603F0EFFBB0F1EA
:1045B000000800D035E00AAA0921204603F087FF51
:1045C00009282BD100200590401E0490E168606905
:1045D00004AB05AACDE90001012103A8FFF737FCD0
:1045E000012801D1DDF81080B8F1800F15D000202E
:1045F0000FE004F1240151F8301049B904F124010D
:1046000041F8305001EBC0014F604FF0000802E06C
:10461000401C0528EDDB00BF00BF01E04FF0FF3874
:1046200000BF40460CB0BDE8F0877CB504460D469F
:104630000026684600F02AFA2946684600F01EFA6D
:104640006946204601F0A4FC401C00B9761E3046A5
:104650007CBD37B50024009820B10098FBF7EAFD37
:10466000044600E0019C20463EBD000010B50F4806
:104670000F4908602420486000210D4881604FF0F8
:104680004071C1604FF4A021016109014161002125
:1046900001760121417681760021C176017741774B
:1046A000FDF736FC08B1FDF70DFA10BD00640040BF
:1046B0005801002000B585B00020019002900390C1
:1046C000049000BF2C48806940F010002A4988619E
:1046D0000846806900F01000009000BF00BF00BFD6
:1046E0000846806940F0200088610846806900F033
:1046F0002000009000BF00BF00BF0846806940F066
:10470000080088610846806900F00800009000BF3A
:1047100000BF00BF0846806940F004008861084679
:10472000806900F00400009000BF00BF01228915DD
:104730001248FDF7BFFE012211021148FDF7BAFE33
:104740004FF480700190012002900020039003201C
:10475000049001A90948FDF71DFD4FF480700190F8
:1047600001200290002003900320049001A9044836
:10477000FDF710FD05B000BD00100240000801402B
:10478000000C014010B50E480E4908604FF48270CD
:10479000486000210B488160C160016141614FF4B4
:1047A000007181610821C161002101624162816261
:1047B0000A21C162FEF7A8FA08B1FDF783F910BD1E
:1047C000003800408001002010B50B480B490860FC
:1047D0004FF4E1304860002108488160C160016108
:1047E0000C21416100218161C161FEF70FFE08B11A
:1047F000FDF768F910BD000000380140D801002025
:1048000000BFFEE700BFFEE74160026070470000A6
:104810000160034A4260034A8260034AC2607047F3
:104820005D8400089B8400085184000808B508498D
:104830000968C9084FF47A72B1FBF2F14143009163
:1048400000BF00BF00994A1E00920029F9D108BD9F
:104850000C000020F8B504460E4615466068B0F519
:10486000827F0DD1A068B0F5004F03D0A068B0F5ED
:10487000806F05D12068006820F040002168086042
:104880006068B0F5827F11D1A068B0F5806F0DD15E
:104890003346002201212046009500F039F898B1F6
:1048A000606D40F0200060650320F8BD33460022B3
:1048B00080212046009500F02BF828B1606D40F073
:1048C000200060650320F0E70020EEE7F8B504461D
:1048D0000E4615463346012202212046009500F07F
:1048E00017F828B1606D40F0200060650320F8BD26
:1048F0003346002280212046009500F009F828B1B7
:10490000606D40F0200060650320F0E70020EEE7D6
:104910002DE9F84F04460D4690461E46DDF82890D6
:10492000FDF7CEFDA0EB0900371AFDF7C9FD824661
:104930002C480068C0F3CB307843009045E0701CF1
:10494000002842D0FDF7BCFDA0EB0A00B84200D21F
:10495000A7BB2068406820F0E000216848606068DC
:10496000B0F5827F0DD1A068B0F5004F03D0A068EC
:10497000B0F5806F05D12068006820F04000216804
:104980000860A06AB0F5005F0DD100BF2068006824
:1049900020F40050216808602068006840F400504E
:1049A0002168086000BF012084F8510000BF00208A
:1049B00084F8500000BF0320BDE8F88FFFE700989F
:1049C00000B900270098401E0090206880682840A9
:1049D000A84201D1012000E000204045AFD10020D5
:1049E000EAE700000C00002010B5FDF76FFD03F0B2
:1049F00009FF012801D003F07DFE10BD00B58FB086
:104A0000282105A8FBF70BFC14216846FBF707FCDF
:104A100001200590000406900020079001200990D5
:104A200002200C90C1030D914FF4E0110E9105A8E6
:104A3000FDF738FF08B1FDF745F80F200090022080
:104A40000190002002904FF48060039000200490B9
:104A500002216846FDF702FE08B1FDF733F80FB0FA
:104A600000BD704701EB4102C2EBC112024B1B6853
:104A700003EBC2024260704700010020024A126844
:104A80000A4442607047000000010020002141609C
:104A9000704700000146034B48681B68C21AD00FDC
:104AA00070470000000100200146054B48681B6864
:104AB000C21A002A01DA002070471046FCE7000005
:104AC0000001002000BF00BF02680C3252E8002F36
:104AD00022F4907102680C3242E80013002BF3D1EB
:104AE00000BF00BF00BF0268143252E8002F22F05E
:104AF00001010268143242E80013002BF3D100BF19
:104B0000016B01290ED100BF00BF02680C3252E8D0
:104B1000002F22F0100102680C3242E80013002B33
:104B2000F3D100BF202180F84210002101637047BB
:104B300070B504462168096921F44051E2681143C7
:104B4000226811612269A1681143626941EA020584
:104B50002168C96841F20C62914329432268D160FF
:104B60002168496921F44071A269114322685161A9
:104B70002D4A2168914202D1FDF74CFE01E0FDF77C
:104B800039FE00EBC00101EB001162689200B1FB3D
:104B9000F2F100EBC00202EB001263689B00B2FB73
:104BA000F3F26423B2FBF3F202EBC20303EB021253
:104BB000A1EB8201322202EB01116422B1FBF2F17E
:104BC00001F0F00100EBC00202EB001263689B00F1
:104BD000B2FBF3F26423B2FBF3F201EB021200EB3F
:104BE000C00101EB001163689B00B1FBF3F100EB26
:104BF000C00303EB00136668B600B3FBF6F364264C
:104C0000B3FBF6F303EBC30606EB0313A1EB83013F
:104C1000322303EB01116423B1FBF3F101F00F0127
:104C200011442268916070BD003801402DE9F843BD
:104C300004460D4617469846089E31E0701C70B336
:104C4000FDF73EFCA0EB0800B04200D816B90320E7
:104C5000BDE8F8832068C06800F00400F8B1802D3A
:104C60001ED0402D1CD020680068C0F3C000B0B139
:104C700000BF002000902068006800902068406815
:104C8000009000BF00BF2046FFF71CFF08206064B3
:104C900000BF002084F8400000BF0120D8E7FFE7F4
:104CA000206800682840A84201D1012000E00020CF
:104CB000B842C3D00020CBE700BFFEE738B50446BA
:104CC0001A49C868804719494869804700BF174892
:104CD000406A10B11548806A70B91448016AC4F37B
:104CE000074088471148016AC4F307208847E0B2AB
:104CF0000E4A116A88470DE0200C8DF80000200A4A
:104D00008DF80100E0B28DF8020008480321826AA4
:104D1000684690470549C869804705460349886940
:104D20008047024908698047284638BD14010020A1
:104D3000F8B504460E4617461F49C86880471E4905
:104D40004869804700BF1C48406A10B11A48806A11
:104D5000C0B91948016AC4F3074088471648016A78
:104D6000C4F307208847E0B2134A116A8847002538
:104D700005E01149C86980477055681C85B2BD427D
:104D8000F7DB12E0200C8DF80000200A8DF80100FE
:104D9000E0B28DF8020008480321826A6846904715
:104DA00005483946426A304690470349886980473A
:104DB000014908698047F8BD1401002038B5044650
:104DC0000D461A49C868804718494869804744F029
:104DD00004041648806A90B91448016AC4F3074075
:104DE00088471248016AC4F307208847E0B20F4A97
:104DF000116A88470D48016A284688470FE0200C51
:104E00008DF80000200A8DF80100E0B28DF8020054
:104E10008DF8035005480421826A6846904703498B
:104E20008869804701490869804738BD140100201E
:104E3000F8B504460E4617461E49C86880471D4906
:104E40004869804744F004041A48806AC0B9194888
:104E5000016AC4F3074088471648016AC4F3072073
:104E60008847E0B2134A116A8847002505E0705D63
:104E7000104A116A8847681C85B2BD42F7DB12E010
:104E8000200C8DF80000200A8DF80100E0B28DF8AA
:104E9000020008480321826A68469047054839465F
:104EA000826A30469047034988698047014908690A
:104EB0008047F8BD140100200FB4054B10B503A9BD
:104EC000044A029800F068F910BC5DF814FB000079
:104ED000396300084C0100200FB4084B10B504A939
:104EE00002AA039800F058F9044602A9002000F035
:104EF000D6FC204610BC5DF814FB00009F5800084B
:104F000002480068C0F30220704700000CED00E08A
:104F100010B5002804DB0A07130E054A135406E0F7
:104F20000A07140E034A00F00F031B1FD45410BDD0
:104F300000E400E018ED00E030B528B1144C031F88
:104F4000002021680A4605E0084630BD9A4203D891
:104F500010465268002AF9D1002800D041680BD0D1
:104F60000468A3EB0005A54204D11B681C4403465A
:104F7000046002E0436000E023603AB11C68D51A87
:104F8000A54203D115682C441C6052685A6030BD9C
:104F9000500100202DE9F04782460F4C10480D4E7D
:104FA0000E4F001B4FF0000820F007054FF00109DD
:104FB00000221146504601F071FA002802D13068F3
:104FC00010B10020BDE8F0873C60C4E90058C6F885
:104FD0000090EDE754010020B4390020500100207A
:104FE000B03F002002E008C8121F08C1002AFAD111
:104FF00070477047002001E001C1121F002AFBD159
:10500000704700002DE9FF5F82B00021DDE9043028
:10501000020DDDF840B0034318D044F61050A2F260
:10502000FF3242431514119801281FD0A5EB0B0045
:10503000401C5FEA000A4FF000064E4FDFF838913F
:10504000B046504615D5CAF1000413E0119801246A
:105050004AA3012801D16FEA0B010298119AC0E915
:105060000031C0E9024206B0BDE8F09FCBF100007C
:10507000DFE704460021404A491842EB0450CDE9DD
:10508000001012E0E00707D032463B464046494652
:10509000FBF77BFB8046894632463B461046194665
:1050A000FBF773FB06460F466410002CEAD1DDE9DE
:1050B0000401DDE90023BAF1000F06DAFBF765FB16
:1050C00042464B46FBF761FB05E0FBF784FD424699
:1050D0004B46FBF780FD04460E460022284BFBF7AB
:1050E0001BFC03D84FF0FF30014607E00022254BA0
:1050F00020463146FBF7A2FAFBF7E8FD102409E051
:10510000002C0ADB0A220023FBF734FC039B30321D
:105110001A55641E50EA0102F2D1641C039AC4F1CC
:1051200011031444119A012A03D0012208430DD11E
:105130000AE0084304D000204FF0110B119072E7F1
:10514000A3EB0B056D1E0DE05B4504DD4FF0000287
:1051500005F1010504E003DA4FF00002A5F10105B5
:10516000002AECD002981199C0E90231C0E900454B
:1051700079E70000000014400000F03F300000001C
:105180000000F0430000E03F30380A2801D201203F
:1051900070470020704700002DE9FF4F95B09A46F8
:1051A000884606460025EEE1252877D100242746CB
:1051B000F94A0121039400E0044316F8013F203B23
:1051C00001FA03F01042F7D130782A2811D06FF09D
:1051D0002F033078A0F13002092A16D8039A44F040
:1051E000020402EB820203EB42021044761C03909D
:1051F000EFE758F8042B0392002A03DA504244F4F4
:105200000054039044F00204761C30782E2816D106
:1052100016F8010F44F004042A280DD06FF02F0275
:105220003078A0F13003092B09D807EB870302EB94
:105230004303C718761CF3E758F8047B761C3078D4
:105240006C280FD006DC4C2817D068280DD06A28AF
:1052500014D104E0742810D07A280FD10DE044F462
:1052600000140AE044F4801401E044F4401472781D
:10527000824202D104F58014761C761C30786628B0
:105280000BD013DC582877D009DC002875D04528CE
:10529000F6D04628F4D047281AD193E118E06328C5
:1052A00035D0642879D0652812D18BE1702873D06D
:1052B00008DC6728F1D069286FD06E280DD06F28E0
:1052C00006D1ACE073282CD0752874D0782853D040
:1052D0005246179990476D1C54E1C4F302500228BE
:1052E00009D003280DD0D8F8001004280DD00D6087
:1052F00008F1040846E1D8F80010EA17C1E90052A5
:10530000F6E7D8F800100D80F2E70D70F0E718F816
:10531000041B8DF8001000208DF80100EB460120E1
:1053200003E058F804BB4FF0FF3061074FF0000175
:1053300002D40DE009F101018946B9420FDA814535
:10534000F8DB1BF809100029F4D108E009F101018C
:1053500089468142FADB1BF809100029F6D103982F
:105360005346A0EB090721463846179A00F080FA09
:10537000284400EB090507E044E008E10DE01BF8D4
:10538000010B524617999047B9F10109F7D25346DC
:1053900021463846179AF2E039E00A21C4F3025256
:1053A0004FF0000B0091022A06D058F8040BC117E9
:1053B000032A09D00AE023E008F1070020F00702E1
:1053C000F2E80201904605E000B2C117042A01D1BB
:1053D00040B2C117002906DA0A460021404261EBBB
:1053E00002012D2202E0220504D52B228DF8042093
:1053F000012203E0E20701D02022F7E7914657E0BF
:105400000A2100E010214FF0000B00910BE0102169
:105410004FF0000B44F004040827009103E008203B
:105420004FF0000B0090C4F30252022A05D058F846
:10543000040B0021032A08D008E008F1070020F03F
:105440000702F2E80201904603E080B2042A00D18C
:10545000C0B24FF0000922072AD53278702A07D04F
:10546000DDF800C08CF0100C5CEA0B0C05D00EE0EF
:1054700040228DF80420012208E050EA010306D002
:1054800030238DF804308DF8052002229146009BD0
:1054900083F0080353EA0B030AD150EA010201D159
:1054A000620705D530228DF804204FF001097F1ED8
:1054B0003278582A04D039A20C920CAA02920BE03E
:1054C0003BA2F9E75B46009AFBF754FA0C9B9B5C06
:1054D000029A521E0292137050EA0102F2D102980F
:1054E00004A9081A00F1200B600702D524F48034C7
:1054F00000E001275F4502DDA7EB0B0000E0002084
:1055000000EB0B01009003984944401A0390E0031C
:1055100006D453462146179A039800F0A9F905448A
:10552000002706E001A85246C05D179990476D1C00
:105530007F1C4F45F6DBE0030CD553462146179AF6
:10554000039800F095F9054404E03020524617997D
:1055500090476D1C0099481E00900029F5DC08E07A
:105560000298029952460078491C02911799904777
:105570006D1CBBF10001ABF1010BF1DC5BE100F054
:1055800065F90544761C307800287FF40DAE19B01B
:105590002846BDE8F08F0000092801003031323381
:1055A000343536373839616263646566000000005F
:1055B0003031323334353637383941424344454649
:1055C00000000000600700D4062708F1070020F063
:1055D0000700F0E80223804603F0004C5FEA0C006D
:1055E00001D097A009E0200501D596A005E0E007CD
:1055F00001D095A001E0AFF24C001390307823F079
:10560000004365280CD006DC452809D046281DD06B
:1056100047287FD13BE0662818D067287AD136E04A
:105620000021112F01DB112000E0781CCDE90001E1
:1056300004A90CA8FFF7E6FCDDE90D010C9A4FF078
:10564000000B07F10109109200914EE04FF000406D
:105650000097CDE9011004A90CA8FFF7D3FCDDE900
:105660000D020C9B0F994FF0000B91461093009286
:1056700011B9791C00EB0109B7EB090003D4C0F1A3
:10568000FF3B07F10109A9EB0700019042E0012F60
:1056900000DA01270021112F01DD112000E038463A
:1056A000CDE9000104A90CA8FFF7ACFCDDE90D0170
:1056B0000C9A00914FF0000BB946109221070FD4BD
:1056C000009A4A4503DA914601E0A9F10109B9F1CE
:1056D000010F05DD109AA9F10101515C3029F4D0C8
:1056E000B84202DA10F1040F03DA0121CDE901100A
:1056F00010E0002803DC8344A9EB000102E0411C18
:10570000494500DD8946A0EB0B00401C01904FF09D
:1057100000400290200705D40198484502DB4FF075
:10572000FF30019000208DF84B0002980DF14B07DF
:10573000B0F1004F25D002200C902B200D90029844
:1057400000280CDA404202902D200D9007E00A213B
:105750000298FBF7F9F83031029007F8011D0C9917
:10576000481E0C900029F2DC02980028EFD1791E27
:105770000D980870307800F0200040F0450007F8E0
:10578000020D11A8C01BC01D02901398007800B133
:10579000012000EB0901019801EBE071029801443E
:1057A0000398401A401E0390E00306D45346214656
:1057B000179A039800F05CF805441398007818B124
:1057C0005246179990476D1CE00323D55346214656
:1057D000179A039800F04CF805441BE0BBF1000F4A
:1057E00007DB0098584504DD1098179910F80B0056
:1057F00001E0179930205246904701980BF1010BB8
:10580000401E05F10105019004D12E205246179942
:1058100090476D1CB9F10001A9F10109DEDC05E03A
:1058200017F8010B5246179990476D1C0299481EB4
:1058300002900029F4DC53462146179A03989EE60D
:105840002D0000002B000000200000002DE9F04199
:10585000044600251E461746880404D405E0394650
:105860002020B0476D1C641EF9D52846BDE8F081A4
:105870002DE9F041044600251E469046C80301D597
:10588000302700E02027880404D505E0414638464B
:10589000B0476D1C641EF9D52846BDE8F0810A6842
:1058A000531C0B601070704770B505460C460026FF
:1058B00014B10DB1A54201D1002070BDAE6826B96A
:1058C000AC6064600020206007E0706828B1214669
:1058D000706802F081FBA86844600120EDE72DE9C3
:1058E000F04705460E4614461F46DDF820904FF05F
:1058F0000008C2461DB116B10CB1A54202D100206C
:10590000BDE8F087B9F1000F07D0304600F006FA85
:105910008046E06840F4007A0CE03946304600F0FA
:10592000BDF98046B8F1000F01D10020E8E7E0683A
:1059300020F4007AA08900F4007020B9206A10B128
:10594000206A79688847C4F82080C4F80CA02146F2
:105950002846FFF7A9FFD3E710B50246002309E068
:10596000064800680078107004480068401C034C2A
:1059700020605B1C8B42F3DB084610BD4801002011
:10598000014609B1086808B90020704719B1D1E98A
:105990000120904201D30846F7E702E08868401CE6
:1059A000886041B1D1E90120904204D28A68086838
:1059B000805C2028F2DDD1E90120904202D1886884
:1059C000401E88600846E0E72DE9F84306460F468A
:1059D00014461D462046294600F02EF88046002039
:1059E000074B4246394600903046FFF778FF10B12A
:1059F0004046BDE8F883404600F076F80020F8E71E
:105A000018000020F8B505460E461446204600F062
:105A100051F807460020074B3A4631460090284689
:105A2000FFF75DFF08B13846F8BD384600F05CF876
:105A30000020F9E71800002070B505460E4613480F
:105A400000F0A1F80446F4B10820E060C4E906566D
:105A50000F4A104B28463146FAF75EFF03D86FF025
:105A6000004060610FE000220B4B28463146FAF7F8
:105A70003BFF03D84FF00040606104E02846314608
:105A8000FAF713FF6061204670BD00001800002087
:105A90000000C0FFFFFFDF410000E0C110B5044877
:105AA00000F071F804460CB14020E060204610BDC3
:105AB0001800002070B505460A4800F064F8044656
:105AC0006CB11020E0600749284600F0E7F820613B
:105AD000206920B9204600F007F8002070BD20465C
